:020000040800F2
:1000000000000220350200087F0200088502000877
:100010008B0200089102000897020008000000000F
:100020000000000000000000000000009D02000829
:10003000A302000800000000A9020008AF020008A7
:10004000B5020008BB020008C1020008C702000890
:10005000CD020008D3020008D9020008DF02000820
:10006000E5020008EB020008F1020008F7020008B0
:10007000FD02000803030008090300080F0300083D
:10008000150300081B0300082103000800000000FE
:10009000000000000000000000000000270300082E
:1000A0002D03000833030008390300083F0300084C
:1000B000450300084B0300085103000857030008DC
:1000C0005D03000863030008690300086F0300086C
:1000D000750300087B03000881030008000000008E
:1000E000870300088D030008930300080000000048
:1000F000000000000000000000000000990300085C
:10010000000000009F030008A5030008AB030008DF
:1001100000000000000000000000000000000000DF
:10012000B1030008B7030008BD030008C3030008BB
:10013000C9030008000000000000000000000000EB
:10014000000000000000000000000000CF030008D5
:10015000D5030008DB030008E1030008E7030008FB
:10016000ED030008F3030008000000000000000099
:10017000000000000000000000000000000000007F
:1001800000000000F903000800000000000000006B
:08019000FF030008050400084C
:1001980010B5054C237833B9044B13B10448AFF3B9
:1001A80000800123237010BD000000200000000023
:1001B8002405000808B5034B1BB103490348AFF3F6
:1001C800008008BD0000000004000020240500088D
:1001D80082B00190019B5A1E0192002BFAD102B005
:1001E80070470000024B4FF400529A61704700BFFD
:1001F80000080240024B4FF000529A61704700BF5E
:100208000008024008B500F0FDF800F047F9FFF7D4
:10021800E9FF054C2046FFF7DBFFFFF7EBFF204621
:10022800FFF7D6FFF3E700BF8096980008B50C4BA0
:100238000C4903E051F8042B43F8042B0A4A934273
:10024800F8D30A4B02E0002243F8042B084A9342F1
:10025800F9D300F035F900F03DF9FFF7D3FFFEE7D9
:1002680000000020440500080000002000000020D5
:100278001C000020FEE708B5FFF7FCFF08B5FFF7F4
:10028800F9FF08B5FFF7F6FF08B5FFF7F3FF08B564
:10029800FFF7F0FF08B5FFF7EDFF08B5FFF7EAFF36
:1002A80008B5FFF7E7FF08B5FFF7E4FF08B5FFF764
:1002B800E1FF08B5FFF7DEFF08B5FFF7DBFF08B57C
:1002C800FFF7D8FF08B5FFF7D5FF08B5FFF7D2FF4E
:1002D80008B5FFF7CFFF08B5FFF7CCFF08B5FFF764
:1002E800C9FF08B5FFF7C6FF08B5FFF7C3FF08B594
:1002F800FFF7C0FF08B5FFF7BDFF08B5FFF7BAFF66
:1003080008B5FFF7B7FF08B5FFF7B4FF08B5FFF763
:10031800B1FF08B5FFF7AEFF08B5FFF7ABFF08B5AB
:10032800FFF7A8FF08B5FFF7A5FF08B5FFF7A2FF7D
:1003380008B5FFF79FFF08B5FFF79CFF08B5FFF763
:1003480099FF08B5FFF796FF08B5FFF793FF08B5C3
:10035800FFF790FF08B5FFF78DFF08B5FFF78AFF95
:1003680008B5FFF787FF08B5FFF784FF08B5FFF763
:1003780081FF08B5FFF77EFF08B5FFF77BFF08B5DB
:10038800FFF778FF08B5FFF775FF08B5FFF772FFAD
:1003980008B5FFF76FFF08B5FFF76CFF08B5FFF763
:1003A80069FF08B5FFF766FF08B5FFF763FF08B5F3
:1003B800FFF760FF08B5FFF75DFF08B5FFF75AFFC5
:1003C80008B5FFF757FF08B5FFF754FF08B5FFF763
:1003D80051FF08B5FFF74EFF08B5FFF74BFF08B50B
:1003E800FFF748FF08B5FFF745FF08B5FFF742FFDD
:1003F80008B5FFF73FFF08B5FFF73CFF08B5FFF763
:1004080039FF0000234A136843F480331360214BFB
:100418001B6813F4003FFAD01E4B1A6B42F080524F
:100428001A631D490A6842F440420A6001F5E63140
:100438000A6842F4E06242F005020A609A6842F4EF
:1004480080529A609A6822F4004222F080029A60F0
:100458005A6822F440325A605A6842F4C05242F054
:100468000C025A605A6842F480025A601A6842F0D4
:1004780080721A60074B1B6813F0007FFAD0054A98
:10048800936843F002039360024B9B6813F0080FD4
:10049800FAD070470038024000700040064A136BDB
:1004A80043F004031363054B1A6842F080621A6034
:1004B80000225A609A6070470038024000080240E3
:1004C800034AD2F8883043F47003C2F88830704782
:1004D80000ED00E070B50D4D0D4C641BA410002616
:1004E800A64209D10B4D0C4C00F018F8641BA4105F
:1004F8000026A64205D170BD55F8043B9847013641
:10050800EEE755F8043B98470136F2E73C0500084A
:100518003C0500083C05000840050008F8B500BF88
:10052800F8BC08BC9E467047F8B500BFF8BC08BCCC
:040538009E46704724
:04053C00BD010008F5
:040540009901000815
:0400000508000235B8
:00000001FF
